{
  "address": "0x404f79c45D27512D05C1EBfdBA6FF4B3Ffc6b6e5",
  "abi": [
    {
      "inputs": [
        {
          "internalType": "uint256",
          "name": "mintFee",
          "type": "uint256"
        },
        {
          "internalType": "address",
          "name": "vrfCoordinatorV2Address",
          "type": "address"
        },
        {
          "internalType": "uint64",
          "name": "subId",
          "type": "uint64"
        },
        {
          "internalType": "bytes32",
          "name": "keyHash",
          "type": "bytes32"
        },
        {
          "internalType": "uint32",
          "name": "callbackGasLimit",
          "type": "uint32"
        }
      ],
      "stateMutability": "nonpayable",
      "type": "constructor"
    },
    {
      "inputs": [
        {
          "internalType": "address",
          "name": "have",
          "type": "address"
        },
        {
          "internalType": "address",
          "name": "want",
          "type": "address"
        }
      ],
      "name": "OnlyCoordinatorCanFulfill",
      "type": "error"
    },
    {
      "inputs": [],
      "name": "TrophiesCard__NotEnoughMintFee",
      "type": "error"
    },
    {
      "inputs": [],
      "name": "TrophiesCard__WithdrawalFailed",
      "type": "error"
    },
    {
      "anonymous": false,
      "inputs": [
        {
          "indexed": true,
          "internalType": "address",
          "name": "owner",
          "type": "address"
        },
        {
          "indexed": true,
          "internalType": "address",
          "name": "approved",
          "type": "address"
        },
        {
          "indexed": true,
          "internalType": "uint256",
          "name": "tokenId",
          "type": "uint256"
        }
      ],
      "name": "Approval",
      "type": "event"
    },
    {
      "anonymous": false,
      "inputs": [
        {
          "indexed": true,
          "internalType": "address",
          "name": "owner",
          "type": "address"
        },
        {
          "indexed": true,
          "internalType": "address",
          "name": "operator",
          "type": "address"
        },
        {
          "indexed": false,
          "internalType": "bool",
          "name": "approved",
          "type": "bool"
        }
      ],
      "name": "ApprovalForAll",
      "type": "event"
    },
    {
      "anonymous": false,
      "inputs": [
        {
          "indexed": false,
          "internalType": "uint256",
          "name": "_fromTokenId",
          "type": "uint256"
        },
        {
          "indexed": false,
          "internalType": "uint256",
          "name": "_toTokenId",
          "type": "uint256"
        }
      ],
      "name": "BatchMetadataUpdate",
      "type": "event"
    },
    {
      "anonymous": false,
      "inputs": [
        {
          "indexed": false,
          "internalType": "uint256",
          "name": "_tokenId",
          "type": "uint256"
        }
      ],
      "name": "MetadataUpdate",
      "type": "event"
    },
    {
      "anonymous": false,
      "inputs": [
        {
          "indexed": false,
          "internalType": "enum TrophiesCard.TrophiesType",
          "name": "trophiesType",
          "type": "uint8"
        },
        {
          "indexed": false,
          "internalType": "address",
          "name": "minter",
          "type": "address"
        }
      ],
      "name": "NftMinted",
      "type": "event"
    },
    {
      "anonymous": false,
      "inputs": [
        {
          "indexed": true,
          "internalType": "uint256",
          "name": "requestId",
          "type": "uint256"
        },
        {
          "indexed": false,
          "internalType": "address",
          "name": "requester",
          "type": "address"
        }
      ],
      "name": "NftRequested",
      "type": "event"
    },
    {
      "anonymous": false,
      "inputs": [
        {
          "indexed": true,
          "internalType": "address",
          "name": "previousOwner",
          "type": "address"
        },
        {
          "indexed": true,
          "internalType": "address",
          "name": "newOwner",
          "type": "address"
        }
      ],
      "name": "OwnershipTransferred",
      "type": "event"
    },
    {
      "anonymous": false,
      "inputs": [
        {
          "indexed": true,
          "internalType": "address",
          "name": "from",
          "type": "address"
        },
        {
          "indexed": true,
          "internalType": "address",
          "name": "to",
          "type": "address"
        },
        {
          "indexed": true,
          "internalType": "uint256",
          "name": "tokenId",
          "type": "uint256"
        }
      ],
      "name": "Transfer",
      "type": "event"
    },
    {
      "inputs": [
        {
          "internalType": "address",
          "name": "to",
          "type": "address"
        },
        {
          "internalType": "uint256",
          "name": "tokenId",
          "type": "uint256"
        }
      ],
      "name": "approve",
      "outputs": [],
      "stateMutability": "nonpayable",
      "type": "function"
    },
    {
      "inputs": [
        {
          "internalType": "address",
          "name": "owner",
          "type": "address"
        }
      ],
      "name": "balanceOf",
      "outputs": [
        {
          "internalType": "uint256",
          "name": "",
          "type": "uint256"
        }
      ],
      "stateMutability": "view",
      "type": "function"
    },
    {
      "inputs": [
        {
          "internalType": "uint256",
          "name": "tokenId",
          "type": "uint256"
        }
      ],
      "name": "getApproved",
      "outputs": [
        {
          "internalType": "address",
          "name": "",
          "type": "address"
        }
      ],
      "stateMutability": "view",
      "type": "function"
    },
    {
      "inputs": [],
      "name": "getChanceArray",
      "outputs": [
        {
          "internalType": "uint8[8]",
          "name": "",
          "type": "uint8[8]"
        }
      ],
      "stateMutability": "pure",
      "type": "function"
    },
    {
      "inputs": [],
      "name": "getMintFee",
      "outputs": [
        {
          "internalType": "uint256",
          "name": "",
          "type": "uint256"
        }
      ],
      "stateMutability": "view",
      "type": "function"
    },
    {
      "inputs": [],
      "name": "getTokenCounter",
      "outputs": [
        {
          "internalType": "uint256",
          "name": "",
          "type": "uint256"
        }
      ],
      "stateMutability": "view",
      "type": "function"
    },
    {
      "inputs": [
        {
          "internalType": "uint256",
          "name": "index",
          "type": "uint256"
        }
      ],
      "name": "getTokenURIs",
      "outputs": [
        {
          "internalType": "string",
          "name": "",
          "type": "string"
        }
      ],
      "stateMutability": "view",
      "type": "function"
    },
    {
      "inputs": [
        {
          "internalType": "uint256",
          "name": "randomNumber",
          "type": "uint256"
        }
      ],
      "name": "getTrophiesRarity",
      "outputs": [
        {
          "internalType": "enum TrophiesCard.TrophiesType",
          "name": "",
          "type": "uint8"
        }
      ],
      "stateMutability": "pure",
      "type": "function"
    },
    {
      "inputs": [
        {
          "internalType": "address",
          "name": "owner",
          "type": "address"
        },
        {
          "internalType": "address",
          "name": "operator",
          "type": "address"
        }
      ],
      "name": "isApprovedForAll",
      "outputs": [
        {
          "internalType": "bool",
          "name": "",
          "type": "bool"
        }
      ],
      "stateMutability": "view",
      "type": "function"
    },
    {
      "inputs": [],
      "name": "name",
      "outputs": [
        {
          "internalType": "string",
          "name": "",
          "type": "string"
        }
      ],
      "stateMutability": "view",
      "type": "function"
    },
    {
      "inputs": [],
      "name": "owner",
      "outputs": [
        {
          "internalType": "address",
          "name": "",
          "type": "address"
        }
      ],
      "stateMutability": "view",
      "type": "function"
    },
    {
      "inputs": [
        {
          "internalType": "uint256",
          "name": "tokenId",
          "type": "uint256"
        }
      ],
      "name": "ownerOf",
      "outputs": [
        {
          "internalType": "address",
          "name": "",
          "type": "address"
        }
      ],
      "stateMutability": "view",
      "type": "function"
    },
    {
      "inputs": [
        {
          "internalType": "uint256",
          "name": "requestId",
          "type": "uint256"
        },
        {
          "internalType": "uint256[]",
          "name": "randomWords",
          "type": "uint256[]"
        }
      ],
      "name": "rawFulfillRandomWords",
      "outputs": [],
      "stateMutability": "nonpayable",
      "type": "function"
    },
    {
      "inputs": [],
      "name": "renounceOwnership",
      "outputs": [],
      "stateMutability": "nonpayable",
      "type": "function"
    },
    {
      "inputs": [],
      "name": "requestNFT",
      "outputs": [
        {
          "internalType": "uint256",
          "name": "requestId",
          "type": "uint256"
        }
      ],
      "stateMutability": "payable",
      "type": "function"
    },
    {
      "inputs": [
        {
          "internalType": "uint256",
          "name": "",
          "type": "uint256"
        }
      ],
      "name": "s_requestIdToSender",
      "outputs": [
        {
          "internalType": "address",
          "name": "",
          "type": "address"
        }
      ],
      "stateMutability": "view",
      "type": "function"
    },
    {
      "inputs": [
        {
          "internalType": "address",
          "name": "from",
          "type": "address"
        },
        {
          "internalType": "address",
          "name": "to",
          "type": "address"
        },
        {
          "internalType": "uint256",
          "name": "tokenId",
          "type": "uint256"
        }
      ],
      "name": "safeTransferFrom",
      "outputs": [],
      "stateMutability": "nonpayable",
      "type": "function"
    },
    {
      "inputs": [
        {
          "internalType": "address",
          "name": "from",
          "type": "address"
        },
        {
          "internalType": "address",
          "name": "to",
          "type": "address"
        },
        {
          "internalType": "uint256",
          "name": "tokenId",
          "type": "uint256"
        },
        {
          "internalType": "bytes",
          "name": "data",
          "type": "bytes"
        }
      ],
      "name": "safeTransferFrom",
      "outputs": [],
      "stateMutability": "nonpayable",
      "type": "function"
    },
    {
      "inputs": [
        {
          "internalType": "address",
          "name": "operator",
          "type": "address"
        },
        {
          "internalType": "bool",
          "name": "approved",
          "type": "bool"
        }
      ],
      "name": "setApprovalForAll",
      "outputs": [],
      "stateMutability": "nonpayable",
      "type": "function"
    },
    {
      "inputs": [
        {
          "internalType": "bytes4",
          "name": "interfaceId",
          "type": "bytes4"
        }
      ],
      "name": "supportsInterface",
      "outputs": [
        {
          "internalType": "bool",
          "name": "",
          "type": "bool"
        }
      ],
      "stateMutability": "view",
      "type": "function"
    },
    {
      "inputs": [],
      "name": "symbol",
      "outputs": [
        {
          "internalType": "string",
          "name": "",
          "type": "string"
        }
      ],
      "stateMutability": "view",
      "type": "function"
    },
    {
      "inputs": [
        {
          "internalType": "uint256",
          "name": "tokenId",
          "type": "uint256"
        }
      ],
      "name": "tokenURI",
      "outputs": [
        {
          "internalType": "string",
          "name": "",
          "type": "string"
        }
      ],
      "stateMutability": "view",
      "type": "function"
    },
    {
      "inputs": [
        {
          "internalType": "address",
          "name": "from",
          "type": "address"
        },
        {
          "internalType": "address",
          "name": "to",
          "type": "address"
        },
        {
          "internalType": "uint256",
          "name": "tokenId",
          "type": "uint256"
        }
      ],
      "name": "transferFrom",
      "outputs": [],
      "stateMutability": "nonpayable",
      "type": "function"
    },
    {
      "inputs": [
        {
          "internalType": "address",
          "name": "newOwner",
          "type": "address"
        }
      ],
      "name": "transferOwnership",
      "outputs": [],
      "stateMutability": "nonpayable",
      "type": "function"
    },
    {
      "inputs": [],
      "name": "withdraw",
      "outputs": [],
      "stateMutability": "nonpayable",
      "type": "function"
    }
  ],
  "transactionHash": "0xdeff0bc9a62cd008fb21f79e8ed44fa63c6ec0f8875986324d4abf06d1340b4d",
  "args": [
    "20000000000000000",
    "0x2Ca8E0C643bDe4C2E08ab1fA0da3401AdAD7734D",
    "13735",
    "0x79d3d8832d904592c0bf9818b621522c988bb8b0c05cdc3b15aea1b6e8db0c15",
    "500000"
  ],
  "numDeployments": 1,
  "solcInputHash": "3c666f9ee22dc15ca59b023b97081c30",
  "bytecode": "0x610140604052604051806101000160405280604051806060016040528060358152602001620043bf603591398152602001604051806060016040528060358152602001620044296035913981526020016040518060600160405280603581526020016200445e60359139815260200160405180606001604052806035815260200162004355603591398152602001604051806060016040528060358152602001620042eb603591398152602001604051806060016040528060358152602001620043f46035913981526020016040518060600160405280603581526020016200438a6035913981526020016040518060600160405280603581526020016200432060359139815250600a90600862000119929190620003a6565b503480156200012757600080fd5b50604051620044933803806200449383398181016040528101906200014d919062000691565b6040518060400160405280600e81526020017f54726f70686965732043617264730000000000000000000000000000000000008152506040518060400160405280600881526020017f54524f5048494553000000000000000000000000000000000000000000000000815250858073ffffffffffffffffffffffffffffffffffffffff1660808173ffffffffffffffffffffffffffffffffffffffff1660601b815250505081600090805190602001906200020a9291906200040d565b508060019080519060200190620002239291906200040d565b505050620002466200023a620002d860201b60201c565b620002e060201b60201c565b8460a0818152505060006009819055508373ffffffffffffffffffffffffffffffffffffffff1660c08173ffffffffffffffffffffffffffffffffffffffff1660601b815250508267ffffffffffffffff1660e08167ffffffffffffffff1660c01b815250508161010081815250508063ffffffff166101208163ffffffff1660e01b8152505050505050506200077e565b600033905090565b6000600760009054906101000a900473ffffffffffffffffffffffffffffffffffffffff16905081600760006101000a81548173ffffffffffffffffffffffffffffffffffffffff021916908373ffffffffffffffffffffffffffffffffffffffff1602179055508173ffffffffffffffffffffffffffffffffffffffff168173ffffffffffffffffffffffffffffffffffffffff167f8be0079c531659141344cd1fd0a4f28419497f9722a3daafe3b4186f6b6457e060405160405180910390a35050565b828054828255906000526020600020908101928215620003fa579160200282015b82811115620003f9578251829080519060200190620003e89291906200040d565b5091602001919060010190620003c7565b5b5090506200040991906200049e565b5090565b8280546200041b9062000748565b90600052602060002090601f0160209004810192826200043f57600085556200048b565b82601f106200045a57805160ff19168380011785556200048b565b828001600101855582156200048b579182015b828111156200048a5782518255916020019190600101906200046d565b5b5090506200049a9190620004c6565b5090565b5b80821115620004c25760008181620004b89190620004e5565b506001016200049f565b5090565b5b80821115620004e1576000816000905550600101620004c7565b5090565b508054620004f39062000748565b6000825580601f1062000507575062000528565b601f016020900490600052602060002090810190620005279190620004c6565b5b50565b600080fd5b6000819050919050565b620005458162000530565b81146200055157600080fd5b50565b60008151905062000565816200053a565b92915050565b600073ffffffffffffffffffffffffffffffffffffffff82169050919050565b600062000598826200056b565b9050919050565b620005aa816200058b565b8114620005b657600080fd5b50565b600081519050620005ca816200059f565b92915050565b600067ffffffffffffffff82169050919050565b620005ef81620005d0565b8114620005fb57600080fd5b50565b6000815190506200060f81620005e4565b92915050565b6000819050919050565b6200062a8162000615565b81146200063657600080fd5b50565b6000815190506200064a816200061f565b92915050565b600063ffffffff82169050919050565b6200066b8162000650565b81146200067757600080fd5b50565b6000815190506200068b8162000660565b92915050565b600080600080600060a08688031215620006b057620006af6200052b565b5b6000620006c08882890162000554565b9550506020620006d388828901620005b9565b9450506040620006e688828901620005fe565b9350506060620006f98882890162000639565b92505060806200070c888289016200067a565b9150509295509295909350565b7f4e487b7100000000000000000000000000000000000000000000000000000000600052602260045260246000fd5b600060028204905060018216806200076157607f821691505b6020821081141562000778576200077762000719565b5b50919050565b60805160601c60a05160c05160601c60e05160c01c610100516101205160e01c613b03620007e86000396000610dbc01526000610d7801526000610d9901526000610d3c015260008181610cba0152610ce201526000818161085001526108a40152613b036000f3fe6080604052600436106101665760003560e01c806370a08231116100d15780639e1ea86f1161008a578063b88d4fde11610064578063b88d4fde14610531578063c87b56dd1461055a578063e985e9c514610597578063f2fde38b146105d457610166565b80639e1ea86f1461048e578063a22cb465146104cb578063a36f573b146104f457610166565b806370a082311461039b578063715018a6146103d85780637a5caab3146103ef5780637abd25d11461041a5780638da5cb5b1461043857806395d89b411461046357610166565b80633ccfd60b116101235780633ccfd60b1461028b57806342842e0e146102a25780635dacf5f4146102cb5780636352211e146102f657806364224120146103335780636e02007d1461037057610166565b806301ffc9a71461016b57806306fdde03146101a8578063081812fc146101d3578063095ea7b3146102105780631fe543e31461023957806323b872dd14610262575b600080fd5b34801561017757600080fd5b50610192600480360381019061018d9190612708565b6105fd565b60405161019f9190612750565b60405180910390f35b3480156101b457600080fd5b506101bd61065e565b6040516101ca9190612804565b60405180910390f35b3480156101df57600080fd5b506101fa60048036038101906101f5919061285c565b6106f0565b60405161020791906128ca565b60405180910390f35b34801561021c57600080fd5b5061023760048036038101906102329190612911565b610736565b005b34801561024557600080fd5b50610260600480360381019061025b9190612a99565b61084e565b005b34801561026e57600080fd5b5061028960048036038101906102849190612af5565b61090e565b005b34801561029757600080fd5b506102a061096e565b005b3480156102ae57600080fd5b506102c960048036038101906102c49190612af5565b610a22565b005b3480156102d757600080fd5b506102e0610a42565b6040516102ed9190612c00565b60405180910390f35b34801561030257600080fd5b5061031d6004803603810190610318919061285c565b610aa9565b60405161032a91906128ca565b60405180910390f35b34801561033f57600080fd5b5061035a6004803603810190610355919061285c565b610b30565b6040516103679190612804565b60405180910390f35b34801561037c57600080fd5b50610385610be0565b6040516103929190612c2b565b60405180910390f35b3480156103a757600080fd5b506103c260048036038101906103bd9190612c46565b610bea565b6040516103cf9190612c2b565b60405180910390f35b3480156103e457600080fd5b506103ed610ca2565b005b3480156103fb57600080fd5b50610404610cb6565b6040516104119190612c2b565b60405180910390f35b610422610cde565b60405161042f9190612c2b565b60405180910390f35b34801561044457600080fd5b5061044d610ede565b60405161045a91906128ca565b60405180910390f35b34801561046f57600080fd5b50610478610f08565b6040516104859190612804565b60405180910390f35b34801561049a57600080fd5b506104b560048036038101906104b0919061285c565b610f9a565b6040516104c29190612cea565b60405180910390f35b3480156104d757600080fd5b506104f260048036038101906104ed9190612d31565b61103d565b005b34801561050057600080fd5b5061051b6004803603810190610516919061285c565b611053565b60405161052891906128ca565b60405180910390f35b34801561053d57600080fd5b5061055860048036038101906105539190612e26565b611086565b005b34801561056657600080fd5b50610581600480360381019061057c919061285c565b6110e8565b60405161058e9190612804565b60405180910390f35b3480156105a357600080fd5b506105be60048036038101906105b99190612ea9565b6111fb565b6040516105cb9190612750565b60405180910390f35b3480156105e057600080fd5b506105fb60048036038101906105f69190612c46565b61128f565b005b6000634906490660e01b7bffffffffffffffffffffffffffffffffffffffffffffffffffffffff1916827bffffffffffffffffffffffffffffffffffffffffffffffffffffffff19161480610657575061065682611313565b5b9050919050565b60606000805461066d90612f18565b80601f016020809104026020016040519081016040528092919081815260200182805461069990612f18565b80156106e65780601f106106bb576101008083540402835291602001916106e6565b820191906000526020600020905b8154815290600101906020018083116106c957829003601f168201915b5050505050905090565b60006106fb826113f5565b6004600083815260200190815260200160002060009054906101000a900473ffffffffffffffffffffffffffffffffffffffff169050919050565b600061074182610aa9565b90508073ffffffffffffffffffffffffffffffffffffffff168373ffffffffffffffffffffffffffffffffffffffff1614156107b2576040517f08c379a00000000000000000000000000000000000000000000000000000000081526004016107a990612fbc565b60405180910390fd5b8073ffffffffffffffffffffffffffffffffffffffff166107d1611440565b73ffffffffffffffffffffffffffffffffffffffff16148061080057506107ff816107fa611440565b6111fb565b5b61083f576040517f08c379a00000000000000000000000000000000000000000000000000000000081526004016108369061304e565b60405180910390fd5b6108498383611448565b505050565b7f000000000000000000000000000000000000000000000000000000000000000073ffffffffffffffffffffffffffffffffffffffff163373ffffffffffffffffffffffffffffffffffffffff161461090057337f00000000000000000000000000000000000000000000000000000000000000006040517f1cf993f40000000000000000000000000000000000000000000000000000000081526004016108f792919061306e565b60405180910390fd5b61090a8282611501565b5050565b61091f610919611440565b826116a0565b61095e576040517f08c379a000000000000000000000000000000000000000000000000000000000815260040161095590613109565b60405180910390fd5b610969838383611735565b505050565b610976611a2f565b600047905060003373ffffffffffffffffffffffffffffffffffffffff16826040516109a19061315a565b60006040518083038185875af1925050503d80600081146109de576040519150601f19603f3d011682016040523d82523d6000602084013e6109e3565b606091505b5050905080610a1e576040517f8e4d7bc600000000000000000000000000000000000000000000000000000000815260040160405180910390fd5b5050565b610a3d83838360405180602001604052806000815250611086565b505050565b610a4a6125d6565b604051806101000160405280600160ff168152602001600460ff168152602001600960ff168152602001601360ff168152602001602260ff168152602001603160ff168152602001604560ff168152602001606460ff16815250905090565b600080610ab583611aad565b9050600073ffffffffffffffffffffffffffffffffffffffff168173ffffffffffffffffffffffffffffffffffffffff161415610b27576040517f08c379a0000000000000000000000000000000000000000000000000000000008152600401610b1e906131bb565b60405180910390fd5b80915050919050565b6060600a8281548110610b4657610b456131db565b5b906000526020600020018054610b5b90612f18565b80601f0160208091040260200160405190810160405280929190818152602001828054610b8790612f18565b8015610bd45780601f10610ba957610100808354040283529160200191610bd4565b820191906000526020600020905b815481529060010190602001808311610bb757829003601f168201915b50505050509050919050565b6000600954905090565b60008073ffffffffffffffffffffffffffffffffffffffff168273ffffffffffffffffffffffffffffffffffffffff161415610c5b576040517f08c379a0000000000000000000000000000000000000000000000000000000008152600401610c529061327c565b60405180910390fd5b600360008373ffffffffffffffffffffffffffffffffffffffff1673ffffffffffffffffffffffffffffffffffffffff168152602001908152602001600020549050919050565b610caa611a2f565b610cb46000611aea565b565b60007f0000000000000000000000000000000000000000000000000000000000000000905090565b60007f0000000000000000000000000000000000000000000000000000000000000000341015610d3a576040517fe44fe99f00000000000000000000000000000000000000000000000000000000815260040160405180910390fd5b7f000000000000000000000000000000000000000000000000000000000000000073ffffffffffffffffffffffffffffffffffffffff16635d3b1d307f00000000000000000000000000000000000000000000000000000000000000007f000000000000000000000000000000000000000000000000000000000000000060037f000000000000000000000000000000000000000000000000000000000000000060016040518663ffffffff1660e01b8152600401610dfd959493929190613314565b602060405180830381600087803b158015610e1757600080fd5b505af1158015610e2b573d6000803e3d6000fd5b505050506040513d601f19601f82011682018060405250810190610e4f919061337c565b9050336008600083815260200190815260200160002060006101000a81548173ffffffffffffffffffffffffffffffffffffffff021916908373ffffffffffffffffffffffffffffffffffffffff160217905550807ff873236e6cc0ecc5be1a9a35c95ee5b8d1ac4cc7bfef0cc5060391d6cc98e26b33604051610ed391906128ca565b60405180910390a290565b6000600760009054906101000a900473ffffffffffffffffffffffffffffffffffffffff16905090565b606060018054610f1790612f18565b80601f0160208091040260200160405190810160405280929190818152602001828054610f4390612f18565b8015610f905780601f10610f6557610100808354040283529160200191610f90565b820191906000526020600020905b815481529060010190602001808311610f7357829003601f168201915b5050505050905090565b600080600090506000610fab610a42565b905060005b600881101561103457828510158015610fe25750818160088110610fd757610fd66131db565b5b602002015160ff1685105b1561100457806007811115610ffa57610ff9612c73565b5b9350505050611038565b818160088110611017576110166131db565b5b602002015160ff169250808061102c906133d8565b915050610fb0565b5050505b919050565b61104f611048611440565b8383611bb0565b5050565b60086020528060005260406000206000915054906101000a900473ffffffffffffffffffffffffffffffffffffffff1681565b611097611091611440565b836116a0565b6110d6576040517f08c379a00000000000000000000000000000000000000000000000000000000081526004016110cd90613109565b60405180910390fd5b6110e284848484611d1d565b50505050565b60606110f3826113f5565b600060066000848152602001908152602001600020805461111390612f18565b80601f016020809104026020016040519081016040528092919081815260200182805461113f90612f18565b801561118c5780601f106111615761010080835404028352916020019161118c565b820191906000526020600020905b81548152906001019060200180831161116f57829003601f168201915b50505050509050600061119d611d79565b90506000815114156111b35781925050506111f6565b6000825111156111e85780826040516020016111d092919061345d565b604051602081830303815290604052925050506111f6565b6111f184611d90565b925050505b919050565b6000600560008473ffffffffffffffffffffffffffffffffffffffff1673ffffffffffffffffffffffffffffffffffffffff16815260200190815260200160002060008373ffffffffffffffffffffffffffffffffffffffff1673ffffffffffffffffffffffffffffffffffffffff16815260200190815260200160002060009054906101000a900460ff16905092915050565b611297611a2f565b600073ffffffffffffffffffffffffffffffffffffffff168173ffffffffffffffffffffffffffffffffffffffff161415611307576040517f08c379a00000000000000000000000000000000000000000000000000000000081526004016112fe906134f3565b60405180910390fd5b61131081611aea565b50565b60007f80ac58cd000000000000000000000000000000000000000000000000000000007bffffffffffffffffffffffffffffffffffffffffffffffffffffffff1916827bffffffffffffffffffffffffffffffffffffffffffffffffffffffff191614806113de57507f5b5e139f000000000000000000000000000000000000000000000000000000007bffffffffffffffffffffffffffffffffffffffffffffffffffffffff1916827bffffffffffffffffffffffffffffffffffffffffffffffffffffffff1916145b806113ee57506113ed82611df8565b5b9050919050565b6113fe81611e62565b61143d576040517f08c379a0000000000000000000000000000000000000000000000000000000008152600401611434906131bb565b60405180910390fd5b50565b600033905090565b816004600083815260200190815260200160002060006101000a81548173ffffffffffffffffffffffffffffffffffffffff021916908373ffffffffffffffffffffffffffffffffffffffff160217905550808273ffffffffffffffffffffffffffffffffffffffff166114bb83610aa9565b73ffffffffffffffffffffffffffffffffffffffff167f8c5be1e5ebec7d5bd14f71427d1e84f3dd0314c0f7b2291e5b200ac8c7c3b92560405160405180910390a45050565b60006008600084815260200190815260200160002060009054906101000a900473ffffffffffffffffffffffffffffffffffffffff169050600060095490506000606484600081518110611558576115576131db565b5b602002602001015161156a9190613542565b9050600061157782610f9a565b90506115838484611ea3565b61164583600a83600781111561159c5761159b612c73565b5b815481106115ad576115ac6131db565b5b9060005260206000200180546115c290612f18565b80601f01602080910402602001604051908101604052809291908181526020018280546115ee90612f18565b801561163b5780601f106116105761010080835404028352916020019161163b565b820191906000526020600020905b81548152906001019060200180831161161e57829003601f168201915b5050505050611ec1565b6001600960008282546116589190613573565b925050819055507f8a269f26b688e110e9cbd887d163dab35cae678fa353a0292de532c0cac1ecdc81856040516116909291906135c9565b60405180910390a1505050505050565b6000806116ac83610aa9565b90508073ffffffffffffffffffffffffffffffffffffffff168473ffffffffffffffffffffffffffffffffffffffff1614806116ee57506116ed81856111fb565b5b8061172c57508373ffffffffffffffffffffffffffffffffffffffff16611714846106f0565b73ffffffffffffffffffffffffffffffffffffffff16145b91505092915050565b8273ffffffffffffffffffffffffffffffffffffffff1661175582610aa9565b73ffffffffffffffffffffffffffffffffffffffff16146117ab576040517f08c379a00000000000000000000000000000000000000000000000000000000081526004016117a290613664565b60405180910390fd5b600073ffffffffffffffffffffffffffffffffffffffff168273ffffffffffffffffffffffffffffffffffffffff16141561181b576040517f08c379a0000000000000000000000000000000000000000000000000000000008152600401611812906136f6565b60405180910390fd5b6118288383836001611f6c565b8273ffffffffffffffffffffffffffffffffffffffff1661184882610aa9565b73ffffffffffffffffffffffffffffffffffffffff161461189e576040517f08c379a000000000000000000000000000000000000000000000000000000000815260040161189590613664565b60405180910390fd5b6004600082815260200190815260200160002060006101000a81549073ffffffffffffffffffffffffffffffffffffffff02191690556001600360008573ffffffffffffffffffffffffffffffffffffffff1673ffffffffffffffffffffffffffffffffffffffff168152602001908152602001600020600082825403925050819055506001600360008473ffffffffffffffffffffffffffffffffffffffff1673ffffffffffffffffffffffffffffffffffffffff16815260200190815260200160002060008282540192505081905550816002600083815260200190815260200160002060006101000a81548173ffffffffffffffffffffffffffffffffffffffff021916908373ffffffffffffffffffffffffffffffffffffffff160217905550808273ffffffffffffffffffffffffffffffffffffffff168473ffffffffffffffffffffffffffffffffffffffff167fddf252ad1be2c89b69c2b068fc378daa952ba7f163c4a11628f55a4df523b3ef60405160405180910390a4611a2a8383836001611f72565b505050565b611a37611440565b73ffffffffffffffffffffffffffffffffffffffff16611a55610ede565b73ffffffffffffffffffffffffffffffffffffffff1614611aab576040517f08c379a0000000000000000000000000000000000000000000000000000000008152600401611aa290613762565b60405180910390fd5b565b60006002600083815260200190815260200160002060009054906101000a900473ffffffffffffffffffffffffffffffffffffffff169050919050565b6000600760009054906101000a900473ffffffffffffffffffffffffffffffffffffffff16905081600760006101000a81548173ffffffffffffffffffffffffffffffffffffffff021916908373ffffffffffffffffffffffffffffffffffffffff1602179055508173ffffffffffffffffffffffffffffffffffffffff168173ffffffffffffffffffffffffffffffffffffffff167f8be0079c531659141344cd1fd0a4f28419497f9722a3daafe3b4186f6b6457e060405160405180910390a35050565b8173ffffffffffffffffffffffffffffffffffffffff168373ffffffffffffffffffffffffffffffffffffffff161415611c1f576040517f08c379a0000000000000000000000000000000000000000000000000000000008152600401611c16906137ce565b60405180910390fd5b80600560008573ffffffffffffffffffffffffffffffffffffffff1673ffffffffffffffffffffffffffffffffffffffff16815260200190815260200160002060008473ffffffffffffffffffffffffffffffffffffffff1673ffffffffffffffffffffffffffffffffffffffff16815260200190815260200160002060006101000a81548160ff0219169083151502179055508173ffffffffffffffffffffffffffffffffffffffff168373ffffffffffffffffffffffffffffffffffffffff167f17307eab39ab6107e8899845ad3d59bd9653f200f220920489ca2b5937696c3183604051611d109190612750565b60405180910390a3505050565b611d28848484611735565b611d3484848484611f78565b611d73576040517f08c379a0000000000000000000000000000000000000000000000000000000008152600401611d6a90613860565b60405180910390fd5b50505050565b606060405180602001604052806000815250905090565b6060611d9b826113f5565b6000611da5611d79565b90506000815111611dc55760405180602001604052806000815250611df0565b80611dcf8461210f565b604051602001611de092919061345d565b6040516020818303038152906040525b915050919050565b60007f01ffc9a7000000000000000000000000000000000000000000000000000000007bffffffffffffffffffffffffffffffffffffffffffffffffffffffff1916827bffffffffffffffffffffffffffffffffffffffffffffffffffffffff1916149050919050565b60008073ffffffffffffffffffffffffffffffffffffffff16611e8483611aad565b73ffffffffffffffffffffffffffffffffffffffff1614159050919050565b611ebd8282604051806020016040528060008152506121e7565b5050565b611eca82611e62565b611f09576040517f08c379a0000000000000000000000000000000000000000000000000000000008152600401611f00906138f2565b60405180910390fd5b80600660008481526020019081526020016000209080519060200190611f309291906125f9565b507ff8e1a15aba9398e019f0b49df1a4fde98ee17ae345cb5f6b5e2c27f5033e8ce782604051611f609190612c2b565b60405180910390a15050565b50505050565b50505050565b6000611f998473ffffffffffffffffffffffffffffffffffffffff16612242565b15612102578373ffffffffffffffffffffffffffffffffffffffff1663150b7a02611fc2611440565b8786866040518563ffffffff1660e01b8152600401611fe49493929190613967565b602060405180830381600087803b158015611ffe57600080fd5b505af192505050801561202f57506040513d601f19601f8201168201806040525081019061202c91906139c8565b60015b6120b2573d806000811461205f576040519150601f19603f3d011682016040523d82523d6000602084013e612064565b606091505b506000815114156120aa576040517f08c379a00000000000000000000000000000000000000000000000000000000081526004016120a190613860565b60405180910390fd5b805181602001fd5b63150b7a0260e01b7bffffffffffffffffffffffffffffffffffffffffffffffffffffffff1916817bffffffffffffffffffffffffffffffffffffffffffffffffffffffff191614915050612107565b600190505b949350505050565b60606000600161211e84612265565b01905060008167ffffffffffffffff81111561213d5761213c612956565b5b6040519080825280601f01601f19166020018201604052801561216f5781602001600182028036833780820191505090505b509050600082602001820190505b6001156121dc578080600190039150507f3031323334353637383961626364656600000000000000000000000000000000600a86061a8153600a85816121c6576121c5613513565b5b04945060008514156121d7576121dc565b61217d565b819350505050919050565b6121f183836123b8565b6121fe6000848484611f78565b61223d576040517f08c379a000000000000000000000000000000000000000000000000000000000815260040161223490613860565b60405180910390fd5b505050565b6000808273ffffffffffffffffffffffffffffffffffffffff163b119050919050565b600080600090507a184f03e93ff9f4daa797ed6e38ed64bf6a1f01000000000000000083106122c3577a184f03e93ff9f4daa797ed6e38ed64bf6a1f01000000000000000083816122b9576122b8613513565b5b0492506040810190505b6d04ee2d6d415b85acef81000000008310612300576d04ee2d6d415b85acef810000000083816122f6576122f5613513565b5b0492506020810190505b662386f26fc10000831061232f57662386f26fc10000838161232557612324613513565b5b0492506010810190505b6305f5e1008310612358576305f5e100838161234e5761234d613513565b5b0492506008810190505b612710831061237d57612710838161237357612372613513565b5b0492506004810190505b606483106123a0576064838161239657612395613513565b5b0492506002810190505b600a83106123af576001810190505b80915050919050565b600073ffffffffffffffffffffffffffffffffffffffff168273ffffffffffffffffffffffffffffffffffffffff161415612428576040517f08c379a000000000000000000000000000000000000000000000000000000000815260040161241f90613a41565b60405180910390fd5b61243181611e62565b15612471576040517f08c379a000000000000000000000000000000000000000000000000000000000815260040161246890613aad565b60405180910390fd5b61247f600083836001611f6c565b61248881611e62565b156124c8576040517f08c379a00000000000000000000000000000000000000000000000000000000081526004016124bf90613aad565b60405180910390fd5b6001600360008473ffffffffffffffffffffffffffffffffffffffff1673ffffffffffffffffffffffffffffffffffffffff16815260200190815260200160002060008282540192505081905550816002600083815260200190815260200160002060006101000a81548173ffffffffffffffffffffffffffffffffffffffff021916908373ffffffffffffffffffffffffffffffffffffffff160217905550808273ffffffffffffffffffffffffffffffffffffffff16600073ffffffffffffffffffffffffffffffffffffffff167fddf252ad1be2c89b69c2b068fc378daa952ba7f163c4a11628f55a4df523b3ef60405160405180910390a46125d2600083836001611f72565b5050565b604051806101000160405280600890602082028036833780820191505090505090565b82805461260590612f18565b90600052602060002090601f016020900481019282612627576000855561266e565b82601f1061264057805160ff191683800117855561266e565b8280016001018555821561266e579182015b8281111561266d578251825591602001919060010190612652565b5b50905061267b919061267f565b5090565b5b80821115612698576000816000905550600101612680565b5090565b6000604051905090565b600080fd5b600080fd5b60007fffffffff0000000000000000000000000000000000000000000000000000000082169050919050565b6126e5816126b0565b81146126f057600080fd5b50565b600081359050612702816126dc565b92915050565b60006020828403121561271e5761271d6126a6565b5b600061272c848285016126f3565b91505092915050565b60008115159050919050565b61274a81612735565b82525050565b60006020820190506127656000830184612741565b92915050565b600081519050919050565b600082825260208201905092915050565b60005b838110156127a557808201518184015260208101905061278a565b838111156127b4576000848401525b50505050565b6000601f19601f8301169050919050565b60006127d68261276b565b6127e08185612776565b93506127f0818560208601612787565b6127f9816127ba565b840191505092915050565b6000602082019050818103600083015261281e81846127cb565b905092915050565b6000819050919050565b61283981612826565b811461284457600080fd5b50565b60008135905061285681612830565b92915050565b600060208284031215612872576128716126a6565b5b600061288084828501612847565b91505092915050565b600073ffffffffffffffffffffffffffffffffffffffff82169050919050565b60006128b482612889565b9050919050565b6128c4816128a9565b82525050565b60006020820190506128df60008301846128bb565b92915050565b6128ee816128a9565b81146128f957600080fd5b50565b60008135905061290b816128e5565b92915050565b60008060408385031215612928576129276126a6565b5b6000612936858286016128fc565b925050602061294785828601612847565b9150509250929050565b600080fd5b7f4e487b7100000000000000000000000000000000000000000000000000000000600052604160045260246000fd5b61298e826127ba565b810181811067ffffffffffffffff821117156129ad576129ac612956565b5b80604052505050565b60006129c061269c565b90506129cc8282612985565b919050565b600067ffffffffffffffff8211156129ec576129eb612956565b5b602082029050602081019050919050565b600080fd5b6000612a15612a10846129d1565b6129b6565b90508083825260208201905060208402830185811115612a3857612a376129fd565b5b835b81811015612a615780612a4d8882612847565b845260208401935050602081019050612a3a565b5050509392505050565b600082601f830112612a8057612a7f612951565b5b8135612a90848260208601612a02565b91505092915050565b60008060408385031215612ab057612aaf6126a6565b5b6000612abe85828601612847565b925050602083013567ffffffffffffffff811115612adf57612ade6126ab565b5b612aeb85828601612a6b565b9150509250929050565b600080600060608486031215612b0e57612b0d6126a6565b5b6000612b1c868287016128fc565b9350506020612b2d868287016128fc565b9250506040612b3e86828701612847565b9150509250925092565b600060089050919050565b600081905092915050565b6000819050919050565b600060ff82169050919050565b612b7e81612b68565b82525050565b6000612b908383612b75565b60208301905092915050565b6000602082019050919050565b612bb281612b48565b612bbc8184612b53565b9250612bc782612b5e565b8060005b83811015612bf8578151612bdf8782612b84565b9650612bea83612b9c565b925050600181019050612bcb565b505050505050565b600061010082019050612c166000830184612ba9565b92915050565b612c2581612826565b82525050565b6000602082019050612c406000830184612c1c565b92915050565b600060208284031215612c5c57612c5b6126a6565b5b6000612c6a848285016128fc565b91505092915050565b7f4e487b7100000000000000000000000000000000000000000000000000000000600052602160045260246000fd5b60088110612cb357612cb2612c73565b5b50565b6000819050612cc482612ca2565b919050565b6000612cd482612cb6565b9050919050565b612ce481612cc9565b82525050565b6000602082019050612cff6000830184612cdb565b92915050565b612d0e81612735565b8114612d1957600080fd5b50565b600081359050612d2b81612d05565b92915050565b60008060408385031215612d4857612d476126a6565b5b6000612d56858286016128fc565b9250506020612d6785828601612d1c565b9150509250929050565b600080fd5b600067ffffffffffffffff821115612d9157612d90612956565b5b612d9a826127ba565b9050602081019050919050565b82818337600083830152505050565b6000612dc9612dc484612d76565b6129b6565b905082815260208101848484011115612de557612de4612d71565b5b612df0848285612da7565b509392505050565b600082601f830112612e0d57612e0c612951565b5b8135612e1d848260208601612db6565b91505092915050565b60008060008060808587031215612e4057612e3f6126a6565b5b6000612e4e878288016128fc565b9450506020612e5f878288016128fc565b9350506040612e7087828801612847565b925050606085013567ffffffffffffffff811115612e9157612e906126ab565b5b612e9d87828801612df8565b91505092959194509250565b60008060408385031215612ec057612ebf6126a6565b5b6000612ece858286016128fc565b9250506020612edf858286016128fc565b9150509250929050565b7f4e487b7100000000000000000000000000000000000000000000000000000000600052602260045260246000fd5b60006002820490506001821680612f3057607f821691505b60208210811415612f4457612f43612ee9565b5b50919050565b7f4552433732313a20617070726f76616c20746f2063757272656e74206f776e6560008201527f7200000000000000000000000000000000000000000000000000000000000000602082015250565b6000612fa6602183612776565b9150612fb182612f4a565b604082019050919050565b60006020820190508181036000830152612fd581612f99565b9050919050565b7f4552433732313a20617070726f76652063616c6c6572206973206e6f7420746f60008201527f6b656e206f776e6572206f7220617070726f76656420666f7220616c6c000000602082015250565b6000613038603d83612776565b915061304382612fdc565b604082019050919050565b600060208201905081810360008301526130678161302b565b9050919050565b600060408201905061308360008301856128bb565b61309060208301846128bb565b9392505050565b7f4552433732313a2063616c6c6572206973206e6f7420746f6b656e206f776e6560008201527f72206f7220617070726f76656400000000000000000000000000000000000000602082015250565b60006130f3602d83612776565b91506130fe82613097565b604082019050919050565b60006020820190508181036000830152613122816130e6565b9050919050565b600081905092915050565b50565b6000613144600083613129565b915061314f82613134565b600082019050919050565b600061316582613137565b9150819050919050565b7f4552433732313a20696e76616c696420746f6b656e2049440000000000000000600082015250565b60006131a5601883612776565b91506131b08261316f565b602082019050919050565b600060208201905081810360008301526131d481613198565b9050919050565b7f4e487b7100000000000000000000000000000000000000000000000000000000600052603260045260246000fd5b7f4552433732313a2061646472657373207a65726f206973206e6f74206120766160008201527f6c6964206f776e65720000000000000000000000000000000000000000000000602082015250565b6000613266602983612776565b91506132718261320a565b604082019050919050565b6000602082019050818103600083015261329581613259565b9050919050565b6000819050919050565b6132af8161329c565b82525050565b600067ffffffffffffffff82169050919050565b6132d2816132b5565b82525050565b600061ffff82169050919050565b6132ef816132d8565b82525050565b600063ffffffff82169050919050565b61330e816132f5565b82525050565b600060a08201905061332960008301886132a6565b61333660208301876132c9565b61334360408301866132e6565b6133506060830185613305565b61335d6080830184613305565b9695505050505050565b60008151905061337681612830565b92915050565b600060208284031215613392576133916126a6565b5b60006133a084828501613367565b91505092915050565b7f4e487b7100000000000000000000000000000000000000000000000000000000600052601160045260246000fd5b60006133e382612826565b91507fffffffffffffffffffffffffffffffffffffffffffffffffffffffffffffffff821415613416576134156133a9565b5b600182019050919050565b600081905092915050565b60006134378261276b565b6134418185613421565b9350613451818560208601612787565b80840191505092915050565b6000613469828561342c565b9150613475828461342c565b91508190509392505050565b7f4f776e61626c653a206e6577206f776e657220697320746865207a65726f206160008201527f6464726573730000000000000000000000000000000000000000000000000000602082015250565b60006134dd602683612776565b91506134e882613481565b604082019050919050565b6000602082019050818103600083015261350c816134d0565b9050919050565b7f4e487b7100000000000000000000000000000000000000000000000000000000600052601260045260246000fd5b600061354d82612826565b915061355883612826565b92508261356857613567613513565b5b828206905092915050565b600061357e82612826565b915061358983612826565b9250827fffffffffffffffffffffffffffffffffffffffffffffffffffffffffffffffff038211156135be576135bd6133a9565b5b828201905092915050565b60006040820190506135de6000830185612cdb565b6135eb60208301846128bb565b9392505050565b7f4552433732313a207472616e736665722066726f6d20696e636f72726563742060008201527f6f776e6572000000000000000000000000000000000000000000000000000000602082015250565b600061364e602583612776565b9150613659826135f2565b604082019050919050565b6000602082019050818103600083015261367d81613641565b9050919050565b7f4552433732313a207472616e7366657220746f20746865207a65726f2061646460008201527f7265737300000000000000000000000000000000000000000000000000000000602082015250565b60006136e0602483612776565b91506136eb82613684565b604082019050919050565b6000602082019050818103600083015261370f816136d3565b9050919050565b7f4f776e61626c653a2063616c6c6572206973206e6f7420746865206f776e6572600082015250565b600061374c602083612776565b915061375782613716565b602082019050919050565b6000602082019050818103600083015261377b8161373f565b9050919050565b7f4552433732313a20617070726f766520746f2063616c6c657200000000000000600082015250565b60006137b8601983612776565b91506137c382613782565b602082019050919050565b600060208201905081810360008301526137e7816137ab565b9050919050565b7f4552433732313a207472616e7366657220746f206e6f6e20455243373231526560008201527f63656976657220696d706c656d656e7465720000000000000000000000000000602082015250565b600061384a603283612776565b9150613855826137ee565b604082019050919050565b600060208201905081810360008301526138798161383d565b9050919050565b7f45524337323155524953746f726167653a2055524920736574206f66206e6f6e60008201527f6578697374656e7420746f6b656e000000000000000000000000000000000000602082015250565b60006138dc602e83612776565b91506138e782613880565b604082019050919050565b6000602082019050818103600083015261390b816138cf565b9050919050565b600081519050919050565b600082825260208201905092915050565b600061393982613912565b613943818561391d565b9350613953818560208601612787565b61395c816127ba565b840191505092915050565b600060808201905061397c60008301876128bb565b61398960208301866128bb565b6139966040830185612c1c565b81810360608301526139a8818461392e565b905095945050505050565b6000815190506139c2816126dc565b92915050565b6000602082840312156139de576139dd6126a6565b5b60006139ec848285016139b3565b91505092915050565b7f4552433732313a206d696e7420746f20746865207a65726f2061646472657373600082015250565b6000613a2b602083612776565b9150613a36826139f5565b602082019050919050565b60006020820190508181036000830152613a5a81613a1e565b9050919050565b7f4552433732313a20746f6b656e20616c7265616479206d696e74656400000000600082015250565b6000613a97601c83612776565b9150613aa282613a61565b602082019050919050565b60006020820190508181036000830152613ac681613a8a565b905091905056fea264697066735822122019e95e66bdae6748207475a637b80f2a84970a8b16b601c634c0dac3af60bd6864736f6c63430008080033697066733a2f2f516d6459473768446d51334650565047484d3531616e4234416b754a45426a37386e77456a644667513142684b35697066733a2f2f516d633167567966746d6b6e55775768504d58367171446e4b5172443669455a5a6b31386d584674765862474c61697066733a2f2f516d644532776763587874317477336142546a436373645867763871584c5a797676476a51457a56763563457658697066733a2f2f516d566658467079616965783868535a734d68517865685a6552344c676758786956784664416632644e34757446697066733a2f2f516d536b75774253427a77385876546938767a365178536f486250394673674a5346776a4a487a43637945386f61697066733a2f2f516d64466e4866596d41586344316a4332636b61675067796777705a74456f6437424d716b4751344d6761695845697066733a2f2f516d587964353852384359447973333361654a3457317255725a4b6862516944507563695844566177594b386732697066733a2f2f516d646b7065363177704134355375323769795a626668474b5946566f5837775532697462454b3570446f344765",
  "devdoc": {
    "kind": "dev",
    "methods": {
      "approve(address,uint256)": {
        "details": "See {IERC721-approve}."
      },
      "balanceOf(address)": {
        "details": "See {IERC721-balanceOf}."
      },
      "getApproved(uint256)": {
        "details": "See {IERC721-getApproved}."
      },
      "isApprovedForAll(address,address)": {
        "details": "See {IERC721-isApprovedForAll}."
      },
      "name()": {
        "details": "See {IERC721Metadata-name}."
      },
      "owner()": {
        "details": "Returns the address of the current owner."
      },
      "ownerOf(uint256)": {
        "details": "See {IERC721-ownerOf}."
      },
      "renounceOwnership()": {
        "details": "Leaves the contract without owner. It will not be possible to call `onlyOwner` functions. Can only be called by the current owner. NOTE: Renouncing ownership will leave the contract without an owner, thereby disabling any functionality that is only available to the owner."
      },
      "safeTransferFrom(address,address,uint256)": {
        "details": "See {IERC721-safeTransferFrom}."
      },
      "safeTransferFrom(address,address,uint256,bytes)": {
        "details": "See {IERC721-safeTransferFrom}."
      },
      "setApprovalForAll(address,bool)": {
        "details": "See {IERC721-setApprovalForAll}."
      },
      "supportsInterface(bytes4)": {
        "details": "See {IERC165-supportsInterface}"
      },
      "symbol()": {
        "details": "See {IERC721Metadata-symbol}."
      },
      "tokenURI(uint256)": {
        "details": "See {IERC721Metadata-tokenURI}."
      },
      "transferFrom(address,address,uint256)": {
        "details": "See {IERC721-transferFrom}."
      },
      "transferOwnership(address)": {
        "details": "Transfers ownership of the contract to a new account (`newOwner`). Can only be called by the current owner."
      }
    },
    "version": 1
  },
  "userdoc": {
    "kind": "user",
    "methods": {},
    "version": 1
  },
  "storageLayout": {
    "storage": [
      {
        "astId": 320,
        "contract": "contracts/TrophiesCard.sol:TrophiesCard",
        "label": "_name",
        "offset": 0,
        "slot": "0",
        "type": "t_string_storage"
      },
      {
        "astId": 322,
        "contract": "contracts/TrophiesCard.sol:TrophiesCard",
        "label": "_symbol",
        "offset": 0,
        "slot": "1",
        "type": "t_string_storage"
      },
      {
        "astId": 326,
        "contract": "contracts/TrophiesCard.sol:TrophiesCard",
        "label": "_owners",
        "offset": 0,
        "slot": "2",
        "type": "t_mapping(t_uint256,t_address)"
      },
      {
        "astId": 330,
        "contract": "contracts/TrophiesCard.sol:TrophiesCard",
        "label": "_balances",
        "offset": 0,
        "slot": "3",
        "type": "t_mapping(t_address,t_uint256)"
      },
      {
        "astId": 334,
        "contract": "contracts/TrophiesCard.sol:TrophiesCard",
        "label": "_tokenApprovals",
        "offset": 0,
        "slot": "4",
        "type": "t_mapping(t_uint256,t_address)"
      },
      {
        "astId": 340,
        "contract": "contracts/TrophiesCard.sol:TrophiesCard",
        "label": "_operatorApprovals",
        "offset": 0,
        "slot": "5",
        "type": "t_mapping(t_address,t_mapping(t_address,t_bool))"
      },
      {
        "astId": 1371,
        "contract": "contracts/TrophiesCard.sol:TrophiesCard",
        "label": "_tokenURIs",
        "offset": 0,
        "slot": "6",
        "type": "t_mapping(t_uint256,t_string_storage)"
      },
      {
        "astId": 161,
        "contract": "contracts/TrophiesCard.sol:TrophiesCard",
        "label": "_owner",
        "offset": 0,
        "slot": "7",
        "type": "t_address"
      },
      {
        "astId": 3148,
        "contract": "contracts/TrophiesCard.sol:TrophiesCard",
        "label": "s_requestIdToSender",
        "offset": 0,
        "slot": "8",
        "type": "t_mapping(t_uint256,t_address)"
      },
      {
        "astId": 3150,
        "contract": "contracts/TrophiesCard.sol:TrophiesCard",
        "label": "s_tokenCounter",
        "offset": 0,
        "slot": "9",
        "type": "t_uint256"
      },
      {
        "astId": 3162,
        "contract": "contracts/TrophiesCard.sol:TrophiesCard",
        "label": "s_trophiesTokenURIs",
        "offset": 0,
        "slot": "10",
        "type": "t_array(t_string_storage)dyn_storage"
      }
    ],
    "types": {
      "t_address": {
        "encoding": "inplace",
        "label": "address",
        "numberOfBytes": "20"
      },
      "t_array(t_string_storage)dyn_storage": {
        "base": "t_string_storage",
        "encoding": "dynamic_array",
        "label": "string[]",
        "numberOfBytes": "32"
      },
      "t_bool": {
        "encoding": "inplace",
        "label": "bool",
        "numberOfBytes": "1"
      },
      "t_mapping(t_address,t_bool)": {
        "encoding": "mapping",
        "key": "t_address",
        "label": "mapping(address => bool)",
        "numberOfBytes": "32",
        "value": "t_bool"
      },
      "t_mapping(t_address,t_mapping(t_address,t_bool))": {
        "encoding": "mapping",
        "key": "t_address",
        "label": "mapping(address => mapping(address => bool))",
        "numberOfBytes": "32",
        "value": "t_mapping(t_address,t_bool)"
      },
      "t_mapping(t_address,t_uint256)": {
        "encoding": "mapping",
        "key": "t_address",
        "label": "mapping(address => uint256)",
        "numberOfBytes": "32",
        "value": "t_uint256"
      },
      "t_mapping(t_uint256,t_address)": {
        "encoding": "mapping",
        "key": "t_uint256",
        "label": "mapping(uint256 => address)",
        "numberOfBytes": "32",
        "value": "t_address"
      },
      "t_mapping(t_uint256,t_string_storage)": {
        "encoding": "mapping",
        "key": "t_uint256",
        "label": "mapping(uint256 => string)",
        "numberOfBytes": "32",
        "value": "t_string_storage"
      },
      "t_string_storage": {
        "encoding": "bytes",
        "label": "string",
        "numberOfBytes": "32"
      },
      "t_uint256": {
        "encoding": "inplace",
        "label": "uint256",
        "numberOfBytes": "32"
      }
    }
  }
}